:020000040800F2
:10000000D8050020C500000809190008611500087E
:1000100000000000000000000000000000000000E0
:10002000000000000000000000000000531900085C
:1000300000000000000000005119000855190008D8
:10004000D700000800000000D7000008D700000813
:10005000D7000008D7000008D7000008D700000824
:1000600000000000D7000008D7000008D7000008F3
:10007000D7000008D7000008D700000800000000E3
:100080002D1A00080000000000000000D700000842
:1000900000000000D7000008D7000008D7000008C3
:1000A00000000000D700000800000000D700000892
:1000B0000348854600F02AF800480047251D00083F
:1000C000D80500200448804704480047FEE7FEE7C3
:1000D000FEE7FEE7FEE7FEE7D1190008B1000008E1
:1000E00030B50B46014600202022012409E00D46D0
:1000F000D5409D4205D31D469540491B2546954058
:1001000040191546521E002DF1DC30BD064C01256C
:10011000064E05E0E36807CC2B430C3C98471034AF
:10012000B442F7D3FFF7C8FF401F0008601F000864
:10013000F8B500250446403400952278012A39D0CC
:100140000122227003689E68760767D4384F4E6894
:10015000BE424DD09E6A0F78BA4016439E6201237C
:10016000826B1B079A421FD0012A1DD0022A1BD086
:10017000032A19D0042A17D0052A15D0062A13D02D
:10018000072A11D002688B6856697607760FB3424A
:100190000AD05369DB08DB005361006842690B7ABF
:1001A0005B075B0F1A4342610A68102A04D0112AC8
:1001B00002D038E00220F8BD1E488368102A07D01C
:1001C00001229205134383600868102803D02AE0B7
:1001D0000122D205F6E7194817490068FFF780FFAA
:1001E0000A21484300E0401E00900028FBD11AE09D
:1001F000986A0E78B240904398620968102901D03D
:10020000112910D10B488268102904D001218905D9
:100210008A43826007E00121C905F9E7416C202289
:10022000114341640125002020702846F8BD0000DC
:10023000011000000027014040420F000000002094
:10024000F8B500250446002803D0606C002802D0D1
:1002500008E00120F8BD0020A06440210855204698
:1002600000F0A8F8606C1022C006002870DB20683F
:10027000816849076CD4616C1301994302231943C7
:10028000616481688907890F012905D10168C9075F
:100290000FD1C16809040CD4C16818239943A3681D
:1002A0001943C1602068016963688900890819439E
:1002B00001612068C1683D4B1940C160A069E169D6
:1002C0008003C9030843216A4B031843636B012B66
:1002D00002D001231B0300E000231843E368184306
:1002E0002369022B09D000231843236B666A5B0045
:1002F00018430123012E02D00AE00423F4E7002969
:1003000027D0616C202631436164A16C1943A1643C
:10031000A16A0E46FF3EC23E02D0E66A3143084360
:100320002168CE680643CE600126A16B3607B14234
:1003300013D0012911D002290FD003290DD004298F
:100340000BD0052909D0062907D0072905D010E0D0
:1003500028E0012109040843DAE721684E69F6081C
:10036000F6004E6121684E69278F7F077F0F3E435D
:100370004E612168C9680E4E3140814207D100208C
:10038000A064606C80088000401C606408E0606CC1
:100390000221884310436064A06C1843A0640125C7
:1003A0002846F8BD606C10436064F8E71902FEFF50
:1003B000E7FF3F8300B500680C4987B0884212D13F
:1003C0000B48826941150A438261806908400590A3
:1003D000012000900320019000200290092069462E
:1003E000C00600F007F807B000BD0000002401407F
:1003F00000100240F8B500238DE001249C40A44683
:1004000022407DD04C68022C01D0122C0CD1DC088B
:10041000A40027183C6A5D07ED0E0F26AE40B443DA
:100420000E69AE4026433E6205685E000324B44078
:100430000F79A543BF07BF0FB7402F4307604D6833
:10044000012D05D0022D03D0112D01D0122D0ED17A
:100450008568CF68A543B7402F43876047686546E6
:10046000AF430D79ED06ED0F9D403D434560C568F6
:10047000A5438C68B4402C43C4604C68E40049D563
:10048000284CA56901263543A561A4699D0834401F
:100490000094254CAD002F19BC689D072E0F0F2529
:1004A000B540AC430925ED06A84201D100250FE077
:1004B0001E4DA84201D101250AE01D4DA84201D1DF
:1004C000022505E01B4DA84201D1032500E00525CA
:1004D000B5402543BD60184C25684E689543F6032A
:1004E00000D51543256065684E689543B60300D571
:1004F00015436560A5684E689543F60202D500E095
:1005000008E01543A560E5684E689543B60200D53E
:100510001543E5605B1C0A681446DC4000D06CE7BC
:10052000F8BD000000100240000001400004004837
:1005300000080048000C004800040140002A01D0D7
:100540008161704781627047014800687047000010
:100550000400002070B5024640325378202B1CD195
:100560001378012B19D001231370242454700468CC
:1005700025689D432560046825681E03B5432560F2
:10058000046825680D43256000680168194301600F
:10059000202050700020107070BD022070BD70B51A
:1005A000024640325378202B1BD11378012B18D0F0
:1005B000012414702423537003681D68A5431D6033
:1005C00005682B680F263602B343090219432960D8
:1005D00000680168214301602020507000201070E5
:1005E00070BD022070BD000070B5040006D0254625
:1005F000403568780026002802D005E0012070BD53
:100600002E70204600F0F0F9242068702068016800
:100610004908490001600F21606809068843216884
:10062000086121688A680120C00382438A60E1680A
:100630000129A16808D02122920211432268916009
:10064000E168022902D005E00143F7E701212268B1
:10065000C902516021684A680F4B1A434A602168F9
:10066000CA688243CA60616920690843A1690902B6
:1006700008432168C860216AE0690843216808606E
:1006800020680168012211430160666420206870BF
:100690002663AE70002070BD00800002FFB50446E6
:1006A000002083B02546403501906A78202A7FD10A
:1006B00022689269D24312047AD52A78012A77D027
:1006C00001222A7024226A7060648F05BF0DE068E1
:1006D00001280BD00520C002012138188902884367
:1006E00021684860FFF730FF064612E03148F3E723
:1006F0000698401C0DD00698002805D0FFF724FF6F
:10070000811B0698814204D920206870002028703F
:1007100043E020688169C943890606D58069C043E2
:10072000C00602D56878A028E2D120688069069BBF
:10073000C043C00600960ED500222021204600F0BE
:100740006DFF002829D121682020C8616870002031
:10075000287007B0F0BD00222021204600F05EFF87
:1007600000281AD120681021C16120682021C161B0
:100770000198411C01910599884214D12068416873
:10078000012292031143416000960022202120465D
:10079000069B00F043FF002802D00320D9E707E0C2
:1007A00021682020C8610199059881428FD3ABE769
:1007B0000220CEE700200002FFB505460446403582
:1007C000687881B020287ED1287801287BD001204C
:1007D0002870FFF7B9FE0746012200901923D103C4
:1007E000204600F01BFF00283FD122206870102017
:1007F000A87000266664039860620498608566634A
:10080000618D09208002FF2903D9FF2222850090F3
:1008100034E0618D2185009036E02046029900F099
:10082000EBFE36E000F01EFF002803D0606C0428C9
:1008300047D01AE02068416A606A421C6262017017
:10084000208D401E80B22085618D491E6185002863
:100850001FD1608D00281CD00097002280212046E7
:100860000A9B00F0DBFE002802D0032005B0F0BD9B
:10087000608DFF2805D9FF222285009601231B06E3
:10088000CBE7608D20850096208D0123C2B25B06E8
:10089000C3E7608D0A9900283A462046C2D100F08D
:1008A0001DFF0028C2D121682020C86121684A6844
:1008B000064B1A404A606870AE702E700020D5E773
:1008C00001E00120D2E70220D0E7000000E800FEAE
:1008D000FFB5054604464035687881B020287ED1B2
:1008E000287801287BD001202870FFF72DFE0746CD
:1008F000012200901923D103204600F08FFE00282A
:100900003FD1212068701020A870002666640398EB
:100910006062049860856663618D01204003FF2951
:1009200003D9FF222285009034E0618D218500905B
:1009300036E02046029900F05FFE36E000F0F5FE5A
:10094000002803D0606C042847D01AE0606A411C7C
:100950006162017820688162608D401E6085208D13
:10096000401E0004000C20851FD1608D00281CD083
:1009700000970022802120460A9B00F04FFE0028AD
:1009800002D0032005B0F0BD608DFF2805D9FF22FD
:100990002285009601231B06CBE7608D20850096FB
:1009A000208D0123C2B25B06C3E7608D0A9900283F
:1009B0003A462046C2D100F091FE0028C2D12168FB
:1009C0002020C86121684A68064B1A404A60687056
:1009D000AE702E700020D5E701E00120D2E70220A2
:1009E000D0E7000000E800FE00B500680F4987B0BE
:1009F000884218D10320400200901220019001206B
:100A00000290032003900420049009206946C00648
:100A1000FFF7F0FC0648C269012149050A43C2619B
:100A2000C0690840059007B000BD000000540040B8
:100A30000010024002480168491C01607047000034
:100A40000400002010B5064801681022114301601F
:100A5000002000F007F800F017F8002010BD00009B
:100A60000020024010B5044600F042F97D21C90083
:100A7000FFF736FB00F046FB00222146501E00F037
:100A800029F8002010BD000008B50C48816901223A
:100A90001143816180691040002200901146501F6F
:100AA00000F018F800221146901E00F013F8002202
:100AB0001146501E00F00EF808BD00000010024064
:100AC000C106C90E01208840014908607047000036
:100AD00000E100E010B500F019FF10BDF8B50546C3
:100AE0000068354CC00352D5E0690026C00007D429
:100AF000E16920040143E161E169014001260091BF
:100B00002E480168C90510D401688215114301609F
:100B1000FFF71AFD074604E0FFF716FDC01B642827
:100B200024D826480068C005F6D5206A03273F026E
:100B3000384020D06968394081421CD0206A226A3E
:100B4000B843012109040A432262226A8A432262CD
:100B50002062C0070FD0FFF7F7FC009008E0FFF716
:100B6000F3FC0099411A1648814201D90320F8BDCF
:100B7000206A8007F3D5206A6968B8430843206279
:100B8000002E04D0E169012000078143E16128784B
:100B9000C00705D0206BA968800880000843206347
:100BA0002878800605D5206B10218843E968084322
:100BB00020630020F8BD00000010024000700040DB
:100BC00088130000F8B5054644480E460068C00783
:100BD000C00FB0420AD24148016849084900314378
:100BE00001600068C007C00FB0425CD128783C4C5F
:100BF000800705D56068F0218843A96808436060D4
:100C00002878C0073FD06868012813D021680228DF
:100C100013D08907002946DA6168890889000143F1
:100C20006160FFF791FC6968074601290DD0022930
:100C300017D024E021688903ECE78901EAE7FFF790
:100C400083FCC11B2748814217D860680007800FCA
:100C50000128F4D117E0FFF777FCC11B214881423E
:100C60000BD860680007800F0228F4D10BE0FFF773
:100C70006BFCC11B1B48814201D90320F8BD606891
:100C80000007800FF3D115480168C907C90FB142A9
:100C90000BD9016849084900314301600068C00769
:100CA000C00FB04201D00120F8BD2878400706D51A
:100CB0006068072109028843E9680843606000F022
:100CC0002DF86168084A0906090F515CC8400749B8
:100CD00008600020FFF7C6FE0020F8BD002002409B
:100CE0000010024088130000281F000800000020A8
:100CF00001480068704700000000002004480549D2
:100D000000684968044A4905490F515CC84070476A
:100D10000000002000100240381F000810B512A388
:100D20000FCB88B06C460FC413A30FCB0FC416496A
:100D30004A680C20134603401448042B0FD0082B9C
:100D40000DD193021B0F6C46E45CC96A04AB090722
:100D5000090F595CD20304D5FFF7C2F9604308B00C
:100D600010BD0B486043FAE70203040506070809B3
:100D70000A0B0C0D0E0F10100102030405060708E4
:100D8000090A0B0C0D0E0F100010024000127A0021
:100D900000093D00FEB504460078D04DC00747D09D
:100DA00068680007800F012807D068680007800F77
:100DB000022809D16868C00306D52868800337D5A2
:100DC000606800287ED033E0012062680004012AB8
:100DD00011D08100002A01D0052A10D02A68824350
:100DE0002A602868884328606068002814D0FFF7CC
:100DF000ABFB06460CE0296801432960F4E72A684A
:100E00000A432A60F7E7FFF79FFB801B64286FD82F
:100E100028688003F7D50BE0FFF796FB064604E051
:100E2000FFF792FB801B6428F1D828688003F7D471
:100E300020780126800700283BDA68680007800FC9
:100E400007D068680007800F022809D16868C003CE
:100E500006D42868800715D5E068012832D111E052
:100E6000E0680028286815D030432860FFF76CFB45
:100E7000074604E0FFF768FBC01B0228C7D82868B4
:100E80008007F7D52868F82188432169C9000843FD
:100E900028600EE0400840002860FFF755FB074639
:100EA00004E0FFF751FBC01B0228B0D82868800778
:100EB000F7D42078000724D5E0690028686A10D0AC
:100EC000304300E008E16862FFF73EFB074604E0BC
:100ED000FFF73AFBC01B022899D8686A8007F7D54C
:100EE0000FE0400840006862FFF72EFB074605E070
:100EF0009DE0FFF729FBC01B022888D8686A80079D
:100F0000F7D4207804274007002860DA00200190F9
:100F1000E869C00008D4E969B8060143E961E969F4
:100F200001400120009101906D480168C90511D46C
:100F30000168821511430160FFF706FB009005E090
:100F4000FFF702FB0099401A642870D864480068D3
:100F5000C005F5D5A06801280AD0002801D00528D1
:100F600010D0286A400840002862286AB84301E08F
:100F7000286A30432862A068002812D0FFF7E4FAFC
:100F800000900AE0286A38432862F1E7FFF7DCFAAC
:100F90000099411A5348814249D8286A8007F5D5FB
:100FA0000DE0FFF7D1FA009006E0FFF7CDFA0099C7
:100FB000411A4C4881423AD8286A8007F5D40198F2
:100FC000002804D0E969012000078143E961207805
:100FD000C00635D5606901280CD0401D686B23D050
:100FE00038436863686B400840006863FFF7ACFAF9
:100FF000064622E0686B38436863686B3043686379
:10100000FFF7A2FA064604E0FFF79EFA801B0228CB
:101010005BD8686B8007F7D5686BF8218843A169B6
:10102000C900084368630BE0B8436863F4E74CE029
:10103000FFF78AFA801B022847D8686B8007F7D42D
:10104000206A002846D069680907890F022943D021
:10105000012636060228286805D0B0432860FFF72D
:1010600073FA044633E0B0432860FFF76DFA074691
:1010700004E0FFF769FAC01B022826D8286880011F
:10108000F7D4E86AE16A000900010843E862616A8E
:10109000A06A084369683D221204914308436860CE
:1010A000286830432860FFF74FFA044604E0FFF752
:1010B0004BFA001B022808D828688001F7D509E000
:1010C000FFF742FA001B022801D90320FEBD286861
:1010D0008001F5D40020FEBD0120FEBD00100240BD
:1010E00000700040881300000422044904280869A5
:1010F00002D09043086170471043FBE700E000E036
:1011000070470000094910B5401E884201D90120EE
:1011100010BD074C60610321081F00F0F7FB0020A1
:10112000A06107202061002010BD0000FFFFFF002C
:1011300000E000E010B5FFF7E3FF10BD7047704717
:1011400070B5040005D025462035687F002802D000
:1011500006E0012070BD00202877204600F00AF844
:1011600002206877211D206800F068FC0120687764
:10117000002070BD70470268D36801210B43D36023
:10118000006802680A43026000207047704770B52B
:101190000446006801690025C9438907002915DB59
:1011A000C168C943890711D4E91E01610120207774
:1011B000206880698007204602D0FFF7E7FF04E03F
:1011C00000F096F8204600F094F825772068016931
:1011D000C943490717D4C168C943490713D4042137
:1011E000C943016102202077206880698005800F53
:1011F000204602D0FFF7CAFF04E000F079F820464D
:1012000000F077F8257720680169C943090716D4EB
:10121000C168C943090712D40821C94301610420E8
:1012200020772068C0698007204602D0FFF7AEFF14
:1012300004E000F05DF8204600F05BF825772068B8
:101240000169C943C90617D4C168C943C90613D483
:101250001021C9430161082020772068C0698005FA
:10126000800F204602D0FFF791FF04E000F040F825
:10127000204600F03EF8257720680169C943C90778
:1012800008D1C168C943C90704D1891E016120463C
:1012900000F030F820680169C943090609D4C16823
:1012A000C943090605D48021C94301612046FFF7DF
:1012B00045FF20680169C943490609D4C168C9438B
:1012C000490605D44021C9430161204600F044F895
:1012D00020680169C943890609D4C168C9438906E0
:1012E00005D42021C94301612046FFF728FF70BDC6
:1012F0007047704710B500681449884224D1002215
:101300002421134800F087FD1148827D417D0902A8
:101310000A4310490A80C27C807C000202434A6072
:101320004A680B488830C2714A68120A02720A88F9
:1013300042720988090A8172252141710021817157
:101340000421017100F063FD10BD000000040040A5
:10135000A800002008000020704770B5040005D0E8
:1013600025466035687A002802D006E0012070BD6D
:1013700000202872204600F027F824206872206898
:101380000168490849000160204600F001FC01287D
:10139000EDD0606A002802D0204600F08BFB206868
:1013A00041680122D202914341602068816808228D
:1013B0009143816020680168012211430160204649
:1013C00000F0DDFB70BD000000B500680E4987B07D
:1013D000884216D10D488269012189030A4382613E
:1013E0008069084005900C200090022001900121A6
:1013F000032003900291049109206946C006FEF77C
:10140000F9FF07B000BD00000038014000100240A5
:1014100070B5034660339C7A202C39D100290BD05B
:10142000002A09D0012584682D03AC4206D1066943
:10143000002E03D1CE0701D0012070BD1E7A012EEF
:1014400026D001261E724165014640310A834A8337
:10145000FF22AC4204D10469002C07D10D4A05E0FB
:10146000002C04D10469002C00D07F228A83002143
:10147000C16622229A72197201688A6832438A60B0
:1014800000680168FF22213211430160002070BD15
:10149000022070BDFF010000FFB50646044660361D
:1014A000707A83B00D46202858D1002D0CD00598B5
:1014B000002809D00120A1680003814207D12069DA
:1014C000002804D1E80702D0012007B0F0BD307A2F
:1014D000012843D0012030720020E0662120707284
:1014E000FFF732F801902746403705983882059873
:1014F000788218E0788A401E788206980090002250
:1015000080212046019B00F0CDFB002818D101204E
:10151000A1680003814202D12069002812D021680D
:10152000287808856D1C788A0028E3D106980090F9
:10153000002240212046019B00F0B4FB002808D087
:101540000320C2E728882168C005C00D0885AD1CAE
:10155000E9E72020707200203072B6E70220B4E77D
:10156000FEE701688A69D243920701D400228A62A9
:1015700000688169C943C90703D081690122114309
:1015800081617047F7B5044600680E468069C04324
:10159000C0062CD420272546403520688069C043EA
:1015A00080060FD5701CF8D0002E05D0FEF7CCFFBA
:1015B0000299401AB042F0D96F700020A8702870CC
:1015C0000320FEBD21681020C8612068C761204645
:1015D000FFF7C7FF20684168064A114041600420B8
:1015E00060646F700020A87028700120FEBD00208C
:1015F000FEBD000000E800FE70B50568049C686848
:101600008905890D1204044E1143194330402143CA
:101610000143696070BD0000009800FCF8B51C46ED
:1016200017460E46054611E0601C0FD0002C05D071
:10163000FEF78AFF0699401AA04207D920204035BC
:1016400068700020A87028700320F8BD28688169A0
:101650003046884304D00020B842E5D00020F8BDD1
:101660000120F9E7F7B50027202605460446403556
:101670002AE02046029A0199FFF784FF002801D052
:101680000120FEBD20688069C04380060BD420681D
:10169000C66120684168104A1140416067646E70FD
:1016A000AF702F70ECE70198002806D0FEF74CFFD2
:1016B0000299411A0198814206D9606C30436064F6
:1016C0006E702F700320FEBD20688069C043400704
:1016D000CFD40020FEBD000000E800FE70B5164625
:1016E0000D4604461AE0324629462046FFF74AFFD7
:1016F000002801D0012070BD002D04D0FEF724FF8A
:10170000801BA8420AD9616C2020014361644034E7
:1017100060700020A0702070032070BD2068806978
:10172000C0438006DFD4002070BD70B516460D465C
:1017300004461CE0324629462046FFF723FF0028D6
:1017400001D0012070BD681C11D0002D04D0FEF71F
:10175000FBFE801BA8420AD9616C20200143616412
:10176000403460700020A0702070032070BD20689D
:101770008069C0438007DDD4002070BD3EB50446BB
:101780001348002521C42560224601200421083287
:10179000656023C26561A561E561FF216562C231B3
:1017A000A5622162E062083C2046FEF749FD002860
:1017B00000D0FEE701200003019000040290009594
:1017C00069462046FEF7B4FC002800D0FEE73EBD87
:1017D0000024014030B5154887B042690121490411
:1017E0000A434261406909250840ED060590002240
:1017F00002212846FEF7A2FE012202212846FEF71A
:101800009DFE022000900120002401900294694670
:1018100003942846FEF7EEFD80200090019469466F
:1018200002942846FEF7E6FD07B030BD00100240E6
:1018300010B5044610482060104860600020A06089
:10184000206160610121E061E16020622046FEF7D5
:10185000CBFE002800D0FEE700212046FEF77AFEEE
:10186000002800D0FEE700212046FEF798FE002861
:1018700000D0FEE710BD0000005400400E0900201B
:1018800008B50E49CB6902221343CB61C9691140E7
:1018900000910B4901600B494160002181603C22AD
:1018A0000161C2604161FFF74BFC0022114610202C
:1018B000FFF710F91020FFF703F908BD00100240F0
:1018C0000004004000127A0010B50E490160E121C9
:1018D0004902416000218160C160016181610C2287
:1018E000C16142610162FFF738FD002800D0FEE7C8
:1018F000002211461B20FFF7EDF81B20FFF7E0F850
:1019000010BD000000380140704700008307FF222F
:10191000DB0E9A408907090E994000280BDA000770
:10192000000F0838830808489B001818C3699343C0
:101930000B43C3617047830804489B001B18186859
:10194000904308431860704700ED00E000E400E0B9
:101950007047704710B5FFF76DF8FFF7EBFB10BD50
:1019600010B594B0022000900120039010200024B4
:10197000049008946846FFF70DFA002800D0FEE7AF
:1019800007200C900D940E9400210F940CA8FFF7E3
:1019900019F9002800D0FEE720201090139410A819
:1019A000FFF79CF8002800D0FEE7FFF7A1F97D21A2
:1019B000C900FEF795FBFFF7A5FB0420FFF794FB9A
:1019C00000221146501EFFF785F814B010BD00002C
:1019D000134801680122114301604168114A114016
:1019E00041600168104A11400160016801229204BF
:1019F0009143016041683F22120491434160C16AF2
:101A000009090901C162016BFF221432914301638C
:101A1000416B490849004163002181607047000023
:101A2000001002400CB8FF08FFFFF6FE10B5024898
:101A3000FFF7ADFB10BD00009401002070B50268F7
:101A4000174B184E984201D0B04203D17024A243E4
:101A50004C682243144C154D984208D0B04206D031
:101A6000134EB04203D0A04201D0A84204D10326B5
:101A70003602B243CE6832438026B2434E693243C7
:101A800002608A68C2620A688262984203D0A042F9
:101A900001D0A84201D1096901630121416170BDF2
:101AA000002C014000040040004401400048014077
:101AB0000020004010B5818CC90707D001684A6832
:101AC00001235B049A43836A1A434A60818C890725
:101AD00007D501684A6801231B049A43C36A1A4365
:101AE0004A60818C490707D501684A6801239B0435
:101AF0009A43036B1A434A60818C090707D5016832
:101B00004A680123DB039A43436B1A434A60818C82
:101B1000C90607D50268916801231B039943836BAB
:101B200019439160818C890607D501688A68012371
:101B30005B039A43C36B1A438A60818C490612D5B2
:101B400003685A6801210905046C8A4322435A60DC
:101B5000026C8A4207D10268516803235B059943EE
:101B6000436C19435160818C090607D501684A68A6
:101B70000123DB04806C9A4302434A6010BD0021BC
:101B8000C16620226030427282720172084670473C
:101B9000F8B504462369A268E6691A43636910210F
:101BA0003343002026681A4333680546394F3B40CB
:101BB0001343336023685A6803263603B243E6684A
:101BC00032435A60236AA26926681A43B3680B2716
:101BD0003F02BB431343B3602F4A126B9207920F2D
:101BE00006D0012A08D0022A08D0032A07D101E032
:101BF000002104E0022102E0042100E0082101228A
:101C0000E369D203934224D100290CD002290DD0DC
:101C1000042913D0082917D001250109090100075B
:101C2000400F084332E0FFF769F809E061681B4A9A
:101C300048088018FEF754FA80B2EEE7FFF76EF816
:101C4000616840004A08F4E761680122480812040C
:101C5000EFE7002908D0022909D004290BD0082970
:101C60000ED001252846F8BDFFF748F805E0616869
:101C70000B4A480806E0FFF751F861684A0801E09E
:101C8000616848088018FEF72BFA80B22168C860A6
:101C9000E8E70000F369FFFF001002400024F400B1
:101CA00000127A00FFB581B017460E4604460A9D21
:101CB0001DE0681C1BD0002D05D0FEF745FC0499E3
:101CC000401AA84213D920680168FF22A13291432B
:101CD00001602068816849084900816020206034E3
:101CE0006072A07200202072032005B0F0BD206851
:101CF000C1693046884304D00020B842D9D00020C2
:101D0000F3E70120F9E702E008C8121F08C1002A22
:101D1000FAD170477047002001E001C1121F002A6C
:101D2000FBD17047FEF78EFEFFF71AFEFFF752FD5C
:101D30001448FFF7C9FD13486438FFF779FD1148CF
:101D4000B038FFF71BFD0F48D430FFF799FD0D4861
:101D5000014670310860643888390860D43000F07A
:101D600047F80848D430FFF706FA064801231A4618
:101D700088216438FEF792FC0248183800F063F8B6
:101D8000FEE70000C000002038B5417C062900D9DC
:101D9000FEE70A210091437CC189046802461232A1
:101DA0002046FEF709FD012800D1FEE738BD0EB53B
:101DB000002101910291C179062900D9FEE78179BC
:101DC0006A461171012101AA03E04318DB795354DB
:101DD000491CC3798B42F8DA0A210091C3798188C2
:101DE00000685B1CFEF774FD012800D1FEE70EBD04
:101DF00010B50446092001220221C006FEF79EFB11
:101E00002068214601223831FFF702FB10BD10B5D2
:101E100000F032F810BD70B588260D460446868065
:101E2000817102720120E0712046FFF7C0FF2C2D66
:101E300001D0242D06D1E681257406206074204649
:101E4000FFF7A2FF70BD70B5882504468580F3209A
:101E5000A0712D202072A079217A40186072022092
:101E6000E0712046FFF7A3FFE58103206074204660
:101E7000FFF78AFF70BD000010B529A188B009687E
:101E8000069128A1096805910021818369460A7E8F
:101E90000A7042794A7082798A700279CA70002188
:101EA0006A4604E04318DB7954182371491C03790E
:101EB0008B42F7DC002106E0828B4318DB79D218D5
:101EC0008283491C89B202798A42F5D8818B0279D2
:101ED00089188183818B427989188183818B8279EA
:101EE00089188183818B828B090A047901ABE154C3
:101EF000037901A901315A5469460A7D0379891D84
:101F00005A5469464A7D0379C91D5A5402790068BA
:101F10000A2369460832FFF7BFFA08B010BD000077
:101F2000230000000D0A0000000000000000000077
:101F3000010203040607080900000000010203046F
:101F4000601F00080000002010000000061D0008AF
:101F5000701F000810000020C8050000161D0008B2
:101F600000127A00000000000000000000000000E5
:04000005080000B13E
:00000001FF
