:020000040800F2
:10000000C8050020C5000008811100082D10000857
:1000100000000000000000000000000000000000E0
:10002000000000000000000000000000CB110008EC
:100030000000000000000000C9110008CD110008F8
:10004000D700000800000000D7000008D700000813
:10005000D7000008D7000008D7000008D700000824
:1000600000000000D7000008D7000008D7000008F3
:10007000D7000008D7000008D700000800000000E3
:10008000D70000080000000000000000D7000008B2
:1000900000000000D7000008D7000008D7000008C3
:1000A00000000000D700000800000000D700000892
:1000B0000348854600F02AF80048004791150008DB
:1000C000C80500200448804704480047FEE7FEE7D3
:1000D000FEE7FEE7FEE7FEE74D120008B10000086C
:1000E00030B50B46014600202022012409E00D46D0
:1000F000D5409D4205D31D469540491B2546954058
:1001000040191546521E002DF1DC30BD064C01256C
:10011000064E05E0E36807CC2B430C3C98471034AF
:10012000B442F7D3FFF7C8FFBC160008DC1600087E
:10013000F8B500250446403400952278012A39D0CC
:100140000122227003689E68760767D4384F4E6894
:10015000BE424DD09E6A0F78BA4016439E6201237C
:10016000826B1B079A421FD0012A1DD0022A1BD086
:10017000032A19D0042A17D0052A15D0062A13D02D
:10018000072A11D002688B6856697607760FB3424A
:100190000AD05369DB08DB005361006842690B7ABF
:1001A0005B075B0F1A4342610A68102A04D0112AC8
:1001B00002D038E00220F8BD1E488368102A07D01C
:1001C00001229205134383600868102803D02AE0B7
:1001D0000122D205F6E7194817490068FFF780FFAA
:1001E0000A21484300E0401E00900028FBD11AE09D
:1001F000986A0E78B240904398620968102901D03D
:10020000112910D10B488268102904D001218905D9
:100210008A43826007E00121C905F9E7416C202289
:10022000114341640125002020702846F8BD0000DC
:10023000011000000027014040420F000000002094
:10024000F8B500250446002803D0606C002802D0D1
:1002500008E00120F8BD0020A06440210855204698
:1002600000F0A8F8606C1022C006002870DB20683F
:10027000816849076CD4616C1301994302231943C7
:10028000616481688907890F012905D10168C9075F
:100290000FD1C16809040CD4C16818239943A3681D
:1002A0001943C1602068016963688900890819439E
:1002B00001612068C1683D4B1940C160A069E169D6
:1002C0008003C9030843216A4B031843636B012B66
:1002D00002D001231B0300E000231843E368184306
:1002E0002369022B09D000231843236B666A5B0045
:1002F00018430123012E02D00AE00423F4E7002969
:1003000027D0616C202631436164A16C1943A1643C
:10031000A16A0E46FF3EC23E02D0E66A3143084360
:100320002168CE680643CE600126A16B3607B14234
:1003300013D0012911D002290FD003290DD004298F
:100340000BD0052909D0062907D0072905D010E0D0
:1003500028E0012109040843DAE721684E69F6081C
:10036000F6004E6121684E69278F7F077F0F3E435D
:100370004E612168C9680E4E3140814207D100208C
:10038000A064606C80088000401C606408E0606CC1
:100390000221884310436064A06C1843A0640125C7
:1003A0002846F8BD606C10436064F8E71902FEFF50
:1003B000E7FF3F8300B500680C4987B0884212D13F
:1003C0000B48826941150A438261806908400590A3
:1003D000012000900320019000200290092069462E
:1003E000C00600F007F807B000BD0000002401407F
:1003F00000100240F8B500238DE001249C40A44683
:1004000022407DD04C68022C01D0122C0CD1DC088B
:10041000A40027183C6A5D07ED0E0F26AE40B443DA
:100420000E69AE4026433E6205685E000324B44078
:100430000F79A543BF07BF0FB7402F4307604D6833
:10044000012D05D0022D03D0112D01D0122D0ED17A
:100450008568CF68A543B7402F43876047686546E6
:10046000AF430D79ED06ED0F9D403D434560C568F6
:10047000A5438C68B4402C43C4604C68E40049D563
:10048000284CA56901263543A561A4699D0834401F
:100490000094254CAD002F19BC689D072E0F0F2529
:1004A000B540AC430925ED06A84201D100250FE077
:1004B0001E4DA84201D101250AE01D4DA84201D1DF
:1004C000022505E01B4DA84201D1032500E00525CA
:1004D000B5402543BD60184C25684E689543F6032A
:1004E00000D51543256065684E689543B60300D571
:1004F00015436560A5684E689543F60202D500E095
:1005000008E01543A560E5684E689543B60200D53E
:100510001543E5605B1C0A681446DC4000D06CE7BC
:10052000F8BD000000100240000001400004004837
:1005300000080048000C004800040140002A01D0D7
:100540008161704781627047014800687047000010
:100550000400002070B5024640325378202B1CD195
:100560001378012B19D001231370242454700468CC
:1005700025689D432560046825681E03B5432560F2
:10058000046825680D43256000680168194301600F
:10059000202050700020107070BD022070BD70B51A
:1005A000024640325378202B1BD11378012B18D0F0
:1005B000012414702423537003681D68A5431D6033
:1005C00005682B680F263602B343090219432960D8
:1005D00000680168214301602020507000201070E5
:1005E00070BD022070BD000070B5040006D0254625
:1005F000403568780026002802D005E0012070BD53
:100600002E70204600F04AF82420687020680168A7
:100610004908490001600F21606809068843216884
:10062000086121688A680120C00382438A60E1680A
:100630000129A16808D02122920211432268916009
:10064000E168022902D005E00143F7E701212268B1
:10065000C902516021684A680F4B1A434A602168F9
:10066000CA688243CA60616920690843A1690902B6
:1006700008432168C860216AE0690843216808606E
:1006800020680168012211430160666420206870BF
:100690002663AE70002070BD0080000200B50068C7
:1006A0000F4987B0884218D10320400200901220E1
:1006B000019001200290032003900420049009205F
:1006C0006946C006FFF796FE0648C2690121490542
:1006D0000A43C261C0690840059007B000BD000030
:1006E000005400400010024002480168491C0160AB
:1006F000704700000400002010B506480168102271
:1007000011430160002000F007F800F017F8002006
:1007100010BD00000020024010B5044600F038F97A
:100720007D21C900FFF7DCFC00F03CFB00222146E4
:10073000501E00F01FF8002010BD000008B50C4846
:10074000816901221143816180691040002200907B
:100750001146501F00F00EF800221146901E00F0C6
:1007600009F800221146501E00F004F808BD0000F0
:100770000010024010B500F005FD10BDF8B50546AB
:100780000068354CC00352D5E0690026C00007D48C
:10079000E16920040143E161E16901400126009122
:1007A0002E480168C90510D4016882151143016003
:1007B000FFF7CAFE074604E0FFF7C6FEC01B642829
:1007C00024D826480068C005F6D5206A03273F02D2
:1007D000384020D06968394081421CD0206A226AA2
:1007E000B843012109040A432262226A8A43226231
:1007F0002062C0070FD0FFF7A7FE009008E0FFF7C8
:10080000A3FE0099411A1648814201D90320F8BD80
:10081000206A8007F3D5206A6968B84308432062DC
:10082000002E04D0E169012000078143E1612878AE
:10083000C00705D0206BA9688008800008432063AA
:100840002878800605D5206B10218843E968084385
:1008500020630020F8BD000000100240007000403E
:1008600088130000F8B5054644480E460068C007E6
:10087000C00FB0420AD241480168490849003143DB
:1008800001600068C007C00FB0425CD128783C4CC2
:10089000800705D56068F0218843A9680843606037
:1008A0002878C0073FD06868012813D02168022843
:1008B00013D08907002946DA616889088900014355
:1008C0006160FFF741FE6968074601290DD00229E2
:1008D00017D024E021688903ECE78901EAE7FFF7F4
:1008E00033FEC11B2748814217D860680007800F7C
:1008F0000128F4D117E0FFF727FEC11B21488142F0
:100900000BD860680007800F0228F4D10BE0FFF7D6
:100910001BFEC11B1B48814201D90320F8BD606842
:100920000007800FF3D115480168C907C90FB1420C
:100930000BD9016849084900314301600068C007CC
:10094000C00FB04201D00120F8BD2878400706D57D
:100950006068072109028843E9680843606000F085
:100960002DF86168084A0906090F515CC84007491B
:1009700008600020FFF7D0FE0020F8BD00200240F4
:100980000010024088130000A2160008000000209A
:100990000148006870470000000000200448054935
:1009A00000684968044A4905490F515CC8407047CE
:1009B0000000002000100240B216000810B512A37B
:1009C0000FCB88B06C460FC413A30FCB0FC41649CE
:1009D0004A680C20134603401448042B0FD0082B00
:1009E0000DD193021B0F6C46E45CC96A04AB090786
:1009F000090F595CD20304D5FFF772FB604308B0BE
:100A000010BD0B486043FAE7020304050607080916
:100A10000A0B0C0D0E0F1010010203040506070847
:100A2000090A0B0C0D0E0F100010024000127A0084
:100A300000093D00FEB504460078D04DC00747D000
:100A400068680007800F012807D068680007800FDA
:100A5000022809D16868C00306D52868800337D505
:100A6000606800287ED033E0012062680004012A1B
:100A700011D08100002A01D0052A10D02A688243B3
:100A80002A602868884328606068002814D0FFF72F
:100A90005BFD06460CE0296801432960F4E72A68FB
:100AA0000A432A60F7E7FFF74FFD801B64286FD8E1
:100AB00028688003F7D50BE0FFF746FD064604E003
:100AC000FFF742FD801B6428F1D828688003F7D423
:100AD00020780126800700283BDA68680007800F2D
:100AE00007D068680007800F022809D16868C00332
:100AF00006D42868800715D5E068012832D111E0B6
:100B0000E0680028286815D030432860FFF71CFDF6
:100B1000074604E0FFF718FDC01B0228C7D8286865
:100B20008007F7D52868F82188432169C900084360
:100B300028600EE0400840002860FFF705FD0746EA
:100B400004E0FFF701FDC01B0228B0D82868800729
:100B5000F7D42078000724D5E0690028686A10D00F
:100B6000304300E008E16862FFF7EEFC074604E06E
:100B7000FFF7EAFCC01B022899D8686A8007F7D5FE
:100B80000FE0400840006862FFF7DEFC074605E022
:100B90009DE0FFF7D9FCC01B022888D8686A80074F
:100BA000F7D4207804274007002860DA002001905D
:100BB000E869C00008D4E969B8060143E961E96958
:100BC00001400120009101906D480168C90511D4D0
:100BD0000168821511430160FFF7B6FC009005E043
:100BE000FFF7B2FC0099401A642870D86448006886
:100BF000C005F5D5A06801280AD0002801D0052835
:100C000010D0286A400840002862286AB84301E0F2
:100C1000286A30432862A068002812D0FFF794FCAD
:100C200000900AE0286A38432862F1E7FFF78CFC5D
:100C30000099411A5348814249D8286A8007F5D55E
:100C40000DE0FFF781FC009006E0FFF77DFC0099C6
:100C5000411A4C4881423AD8286A8007F5D4019855
:100C6000002804D0E969012000078143E961207868
:100C7000C00635D5606901280CD0401D686B23D0B3
:100C800038436863686B400840006863FFF75CFCAA
:100C9000064622E0686B38436863686B30436863DC
:100CA000FFF752FC064604E0FFF74EFC801B0228CB
:100CB0005BD8686B8007F7D5686BF8218843A1691A
:100CC000C900084368630BE0B8436863F4E74CE08D
:100CD000FFF73AFC801B022847D8686B8007F7D4DF
:100CE000206A002846D069680907890F022943D085
:100CF000012636060228286805D0B0432860FFF791
:100D000023FC044633E0B0432860FFF71DFC074690
:100D100004E0FFF719FCC01B022826D828688001D0
:100D2000F7D4E86AE16A000900010843E862616AF1
:100D3000A06A084369683D22120491430843686031
:100D4000286830432860FFF7FFFB044604E0FFF704
:100D5000FBFB001B022808D828688001F7D509E0B2
:100D6000FFF7F2FB001B022801D90320FEBD286813
:100D70008001F5D40020FEBD0120FEBD0010024020
:100D80000070004088130000042204490428086908
:100D900002D09043086170471043FBE700E000E099
:100DA00070470000094910B5401E884201D9012052
:100DB00010BD074C60610321081F00F0E3F900201B
:100DC000A06107202061002010BD0000FFFFFF0090
:100DD00000E000E010B5FFF7E3FF10BD70B50400C0
:100DE00005D025462035687F002802D006E0012086
:100DF00070BD00202877204600F00AF802206877AE
:100E0000211D206800F050FA01206877002070BD95
:100E100070470268D36801210B43D3600068026801
:100E20000A4302600020704770B5040005D02546D3
:100E30006035687A002802D006E0012070BD0020ED
:100E40002872204600F026F8242068722068016885
:100E5000490849000160204600F0D0FA0128EDD091
:100E6000606A002802D0204600F05AFA20684168E3
:100E70000122D20291434160206881680822914397
:100E8000816020680168012211430160204600F062
:100E9000ACFA70BD00B500680E4987B0884216D123
:100EA0000D488269012189030A43826180690840F3
:100EB00005900C2000900220019001210320039056
:100EC0000291049109206946C006FFF793FA07B022
:100ED00000BD0000003801400010024070B503461C
:100EE00060339C7A202C39D100290BD0002A09D0FC
:100EF000012584682D03AC4206D10669002E03D17A
:100F0000CE0701D0012070BD1E7A012E26D0012609
:100F10001E724165014640310A834A83FF22AC427A
:100F200004D10469002C07D10D4A05E0002C04D13E
:100F30000469002C00D07F228A830021C16622220E
:100F40009A72197201688A6832438A60006801687F
:100F5000FF22213211430160002070BD022070BDCC
:100F6000FF010000FFB5064604466036707A83B084
:100F70000D46202858D1002D0CD00598002809D006
:100F80000120A1680003814207D12069002804D113
:100F9000E80702D0012007B0F0BD307A012843D025
:100FA000012030720020E06621207072FFF7CCFA39
:100FB000019027464037059838820598788218E0D6
:100FC000788A401E78820698009000228021204670
:100FD000019B00F09DFA002818D10120A1680003B0
:100FE000814202D12069002812D021682878088522
:100FF0006D1C788A0028E3D10698009000224021D9
:101000002046019B00F084FA002808D00320C2E7A4
:1010100028882168C005C00D0885AD1CE9E720209F
:10102000707200203072B6E70220B4E7FEE70000DD
:101030003EB504461348002521C425602246012000
:1010400004210832656023C26561A561E561FF2165
:101050006562C231A5622162E062083C2046FFF76A
:10106000EFF8002800D0FEE7012000030190000403
:101070000290009569462046FFF75AF8002800D0F4
:10108000FEE73EBD0024014030B5134887B04269F9
:10109000012149040A434261406909250840ED06DF
:1010A0000590002202212846FFF748FA022000900E
:1010B0000120002401900294694603942846FFF71A
:1010C00099F9802000900194694602942846FFF720
:1010D00091F907B030BD00000010024010B5044681
:1010E00010482060104860600020A06020616061AE
:1010F0000121E061E16020622046FFF775FA0028D7
:1011000000D0FEE700212046FFF724FA002800D097
:10111000FEE700212046FFF742FA002800D0FEE754
:1011200010BD0000005400400E09002010B5064913
:10113000016006494160002181603C220161C2607A
:101140004161FFF74BFE10BD002C014000127A00F8
:1011500010B50A4901604B21C9014160002181603D
:10116000C16001618161C1610C2201624261416221
:10117000FFF75AFE002800D0FEE710BD00380140FE
:10118000704700008307FF22DB0E9A408907090E93
:10119000994000280BDA0007000F08388308084838
:1011A0009B001818C36993430B43C36170478308BE
:1011B00004489B001B181868904308431860704748
:1011C00000ED00E000E400E07047704710B5FFF765
:1011D0008BFAFFF7FFFD10BD10B594B01220009000
:1011E000012003900590102004900024069008949C
:1011F0006846FFF71FFC002800D0FEE707200C9090
:101200000D940E9400210F940CA8FFF72BFB0028DF
:1012100000D0FEE7212010901294139410A8FFF73D
:10122000ADFA002800D0FEE7FFF7B2FB7D21C90030
:10123000FEF756FFFFF7B6FD0420FFF7A5FD0022DD
:101240001146501EFFF796FA14B010BD13480168FE
:101250000122114301604168114A11404160016857
:10126000104A11400160016801229204914301601B
:1012700041683F22120491434160C16A0909090192
:10128000C162016BFF22143291430163416B490833
:101290004900416300218160704700000010024056
:1012A0000CB8FF08FFFFF6FE70B50268174B184E2A
:1012B000984201D0B04203D17024A2434C6822432B
:1012C000144C154D984208D0B04206D0134EB0428F
:1012D00003D0A04201D0A84204D103263602B24373
:1012E000CE6832438026B2434E69324302608A6838
:1012F000C2620A688262984203D0A04201D0A8422A
:1013000001D1096901630121416170BD002C0140D7
:10131000000400400044014000480140002000401B
:1013200010B5818CC90707D001684A6801235B04A6
:101330009A43836A1A434A60818C890707D50168FA
:101340004A6801231B049A43C36A1A434A60818C8A
:10135000490707D501684A6801239B049A43036B38
:101360001A434A60818C090707D501684A6801233E
:10137000DB039A43436B1A434A60818CC90607D545
:101380000268916801231B039943836B19439160A1
:10139000818C890607D501688A6801235B039A431B
:1013A000C36B1A438A60818C490612D503685A6858
:1013B00001210905046C8A4322435A60026C8A4267
:1013C00007D10268516803235B059943436C1943B5
:1013D0005160818C090607D501684A680123DB0446
:1013E000806C9A4302434A6010BD0021C1662022EE
:1013F000603042728272017208467047F8B5044646
:101400002369A268E6691A43636910213343002007
:1014100026681A4333680546394F3B40134333600F
:1014200023685A6803263603B243E66832435A609B
:10143000236AA26926681A43B3680B273F02BB439D
:101440001343B3602F4A126B9207920F06D0012A02
:1014500008D0022A08D0032A07D101E0002104E0C5
:10146000022102E0042100E008210122E369D20305
:10147000934224D100290CD002290DD0042913D085
:10148000082917D00125010909010007400F084369
:1014900032E0FFF783FA09E061681B4A48088018C8
:1014A000FEF71EFE80B2EEE7FFF788FA61684000A3
:1014B0004A08F4E76168012248081204EFE70029AE
:1014C00008D0022909D004290BD008290ED0012503
:1014D0002846F8BDFFF762FA05E061680B4A480844
:1014E00006E0FFF76BFA61684A0801E061684808A6
:1014F0008018FEF7F5FD80B22168C860E8E70000BB
:10150000F369FFFF001002400024F40000127A008B
:10151000FFB581B017460E4604460A9D1DE0681CC3
:101520001BD0002D05D0FFF70FF80499401AA842F0
:1015300013D920680168FF22A1329143016020681D
:101540008168490849008160202060346072A0727F
:1015500000202072032005B0F0BD2068C16930462C
:10156000884304D00020B842D9D00020F3E70120FE
:10157000F9E702E008C8121F08C1002AFAD1704733
:101580007047002001E001C1121F002AFBD1704703
:10159000FFF7B2F8FFF720FEFFF776FD1048FFF7E0
:1015A000D7FD0F486438FFF799FD0D48B038FFF7B5
:1015B0003FFD0B48CC30FFF7B9FD094801467031BB
:1015C0000860643888390860D43000F00BF80448AB
:1015D000703000F057F80248CC30FFF71AFCFEE7F5
:1015E000B8000020F8B50446092000228021C0067A
:1015F000FEF7A4FFA07F0128FDD100262546A6778F
:101600004D20403521462872012348311A460F46A5
:101610002068FFF7A7FCA07F0128FDD1A6772872DC
:1016200001231A4639462068FFF79CFC02202872E5
:1016300001231A4639462068FFF794FC19202872C6
:1016400001231A4639462068FFF78CFC6420287273
:1016500001231A4639462068FFF784FCFF202872D0
:1016600001231A4639462068FFF77CFCA07F012839
:10167000FDD15A20287201231A4639462068FFF707
:1016800071FCF8BD10B50446092001228021C00676
:10169000FEF754FF2146012234312068FFF71EFC7B
:1016A00010BD000000000000000001020304060756
:1016B000080900000000010203040000DC16000815
:1016C000000000200800000072150008E416000861
:1016D00008000020C00500008215000800127A00F2
:0416E0000000000006
:04000005080000B13E
:00000001FF
