:020000040800F2
:10000000B80500200101000883140008A3130008AC
:1000100081140008490100088D1800080000000044
:10002000000000000000000000000000A71400080D
:100030005F01000800000000A5140008A9140008D2
:100040001B0100081B0100081B0100081B01000820
:100050001B0100081B0100081B0100081B01000810
:100060001B0100081B0100081B0100081B01000800
:100070001B0100081B0100081B0100081B010008F0
:100080001B0100081B0100081B0100081B010008E0
:100090001B0100081B0100081B0100081B010008D0
:1000A0001B0100081B0100081B0100081B010008C0
:1000B0001B010008651500081B0100081B01000852
:1000C0001B0100081B0100081B0100081B010008A0
:1000D0001B0100081B0100081B0100088118000813
:1000E0001B0100081B0100081B010008DFF80CD0F1
:1000F00000F018F8004800472D190008B805002046
:100100000648804706480047FEE7FEE7FEE7FEE7B1
:10011000FEE7FEE7FEE7FEE7FEE7FEE71D15000847
:10012000ED000008064C074D06E0E06840F00103D2
:1001300094E8070098471034AC42F6D3FFF7DAFF93
:10014000F8190008181A0008FEE71FB598B20090C9
:10015000002001901046694600F00EF81FBD704760
:1001600031B500F0F5F8044600F0F2F80099001BF4
:100170008842F9D338BD00002DE9F84FDFF890A18F
:1001800000220AF1040B144601274FF00F090BF16E
:10019000040E00BF0B6807FA04F52B40AB4274D184
:1001A000DFF870C14E68A6EB0C0866452BD00DDC5D
:1001B000032E34D005DC36B3012E19D0022E2FD1F8
:1001C0001BE0112E16D0122E2AD119E0B8F5881F87
:1001D00019D006DCB8F5803F15D0B8F5801F1FD1C7
:1001E00011E0B8F5001F0ED0B8F5041F18D10AE0D1
:1001F000CA6815E0CA68121D12E0CA6808320FE02A
:10020000CA680C320CE08A682AB1012A4FF0080251
:1002100003D0456104E0042202E0056100E0002211
:10022000FF2B01D8064601E000F104064FEA8405E1
:1002300001D9A5F12005D6F800C009FA05F82CEA85
:10024000080C02FA05F54CEA050CC6F800C04D682A
:10025000ED0057D5304DAE6946F00106AE61AD698F
:1002600024F0030605F0010500952C4D06EB050C66
:10027000DCF80850A6074FEA167809FA08F6B543E5
:10028000274EB04202D1002610E03BE0254EB0429E
:1002900001D101260AE0244EB04201D1022605E038
:1002A000224EB04201D1032600E0042606FA08F6E9
:1002B0002E43CCF808604D68DAF80060ED0355462F
:1002C00001D51E4300E09E432E604D68DBF80060C0
:1002D000AD035D4601D51E4300E09E432E604D6890
:1002E000DEF80060ED02754601D51E4300E09E4336
:1002F0002E604D68AD020E4D2E6801D51E4300E004
:100300009E432E60641C102CFFF444AFBDE8F88FB0
:1003100000040140000011100010024000000140E4
:1003200000080140000C0140001001400014014091
:100330000C0401408068084000D001207047C2686A
:100340004A40C26070470AB1016170470904FBE787
:100350000148006870470000000000200248016862
:10036000491C01607047000000000020074810B5DC
:10037000016841F010010160032000F087F80020BF
:1003800000F006F800F016F8002010BD0020024032
:1003900010B5044600F050F94FF47A71B0FBF1F05B
:1003A00000F090FC00222146501E00F04FF8002083
:1003B00010BD00001D4808B5816941F0010181614F
:1003C000806900F001000090032000F05FF8002237
:1003D00011466FF00B0000F039F8002211466FF063
:1003E0000A0000F033F8002211466FF0090000F017
:1003F0002DF800221146501F00F028F80022114667
:10040000101F00F023F800221146901E00F01EF885
:1004100000221146501E00F019F80548416821F0ED
:10042000E06141F00071416008BD00000010024031
:100430000000014000F01F020121914040098000AE
:1004400000F1E020C0F8001170470000F0B40E4B3E
:100450001B680C46C3F30223C3F10705042D00D922
:100460000425191D072901D2002300E0DB1E012607
:1004700006FA05F1491E214099409E40761E16401D
:100480003143F0BC00F0FEBF0CED00E0064900F087
:10049000070208684FF6FF03184040EA0220034AAB
:1004A00010430860704700000CED00E00000FA0502
:1004B0002DE9F047DFF8708105460E46D8F80000B8
:1004C00000F00700B0420CD2D8F8001021F007016C
:1004D0003143C8F80010D8F8000000F00700B0421F
:1004E00077D12878514C800705D56068A96820F03D
:1004F000F000084360602878C00759D0696801207F
:1005000001290DD0022929D05FF0020393FAA3F24A
:10051000B2FA82F242F02002520904D0226803E0CB
:100520004FF40033F2E7626A93FAA3F3B3FA83F36A
:1005300003F01F03984002424BD0606820F0030094
:1005400008436060FFF704FF6968074641F288309E
:1005500001290DD00229814617D025E04FF0007304
:10056000D4E700BFFFF7F4FEC11B494501D918E0ED
:1005700081466068C0F381000128F3D118E000BF14
:10058000FFF7E6FEC11B49450BD86068C0F3810048
:100590000228F5D10CE000BFFFF7DAFEC11B494588
:1005A00002D90320BDE8F087606810F00C0FF3D18A
:1005B000D8F80010404601F00701B1420BD901689C
:1005C00021F0070131430160006800F00700B042EC
:1005D00001D00120E6E72878400705D56068E96882
:1005E00020F4E060084360602878000706D5606862
:1005F000296920F4605040EAC100606000F052F8C0
:100600006168F02292FAA2F201F0F001B2FA82F2ED
:10061000D140074A515CC840064908600020FFF7F6
:10062000B7FE0020BEE7000000200240001002409C
:10063000E019000830000020014800687047000001
:100640003000002008480949006849684FF4E0621A
:1006500092FAA2F201F4E061B2FA82F2D140044AC5
:10066000515CC8407047000030000020001002407C
:10067000F019000808480949006849684FF46052B9
:1006800092FAA2F201F46051B2FA82F2D140044A25
:10069000515CC8407047000030000020001002404C
:1006A000F019000810B519A385B00FCB8DE80F0025
:1006B0001AA01B4B006804905A681A4802F00C01FB
:1006C00004291DD008291BD14FF4701494FAA4F406
:1006D00002F47011B4FA84F4E140D2031DF8011061
:1006E00010D55A684FF4003393FAA3F302F40032A2
:1006F000B3FA83F3DA4004AB9A5CB0FBF2F0484300
:1007000005B010BD08484843FAE70000020304059D
:10071000060708090A0B0C0D0E0F1010010200004D
:100720000010024000127A0000093D002DE9F84F48
:1007300004460078F74DC0074FF0010625D06868E1
:100740007704C0F38100012807D06868C0F38100F6
:1007500002281BD16868C00318D597FAA7F0B0FA31
:1007600080F040F02000400901D0286800E0686A6D
:1007700097FAA7F1B1FA81F101F01F0106FA01F130
:1007800008425ED0606800287CD05AE06068B0F50E
:10079000803F0BD010B1B0F5A02F11D0286820F405
:1007A00080302860286820F4802002E0286840F427
:1007B00080302860606828B3FFF7CAFD80460BE0F0
:1007C000286840F480202860F0E700BFFFF7C0FDF4
:1007D000A0EB0800642871D897FAA7F0B0FA80F06F
:1007E00040F02000400901D0286800E0686A97FACC
:1007F000A7F1B1FA81F101F01F0106FA01F10842F7
:10080000E4D01EE0FFF7A4FD804605E0FFF7A0FD61
:10081000A0EB08006428DED897FAA7F0B0FA80F0C1
:1008200040F02000400901D0286800E0686A97FA8B
:10083000A7F1B1FA81F101F01F0106FA01F10842B6
:10084000E4D12078DFF8D08280074FF000094FF024
:1008500002075BD568684FF0F80B10F00C0F07D05B
:100860006868C0F3810002281CD16868C00319D4ED
:1008700097FAA7F0B0FA80F040F02000400902D0CB
:10088000286801E08BE0686A97FAA7F1B1FA81F174
:1008900001F01F0106FA01F108422CD0206901285D
:1008A0007DD128E0206990B396FAA6F0B0FA80F0E6
:1008B00048F82060FFF74CFD824607E011E100BFD9
:1008C000FFF746FDA0EB0A00022884D897FAA7F0AC
:1008D000B0FA80F040F02000400901D0286800E024
:1008E000686A97FAA7F1B1FA81F101F01F0106FADF
:1008F00001F10842E4D028689BFAABF26169B2FAD0
:1009000082F220F0F80091400843286025E0FFE7DC
:1009100096FAA6F1B1FA81F148F82190FFF718FD97
:10092000824605E0FFF714FDA0EB0A000228CCD8B0
:1009300097FAA7F0B0FA80F040F02000400901D00B
:10094000286800E0686A97FAA7F1B1FA81F101F02E
:100950001F0106FA01F10842E4D1207800076ED5A4
:10096000A069B8B396FAA6F0B0FA80F008EB800060
:10097000C0F88064FFF7ECFC824605E0FFF7E8FC76
:10098000A0EB0A000228A0D897FAA7F0B0FA80F0EE
:1009900040F06000B6EB501F02D128680CE062E125
:1009A00097FAA7F0B0FA80F040F06000B7EB501F64
:1009B00001D1286A00E0686A97FAA7F1B1FA81F1DB
:1009C00001F01F0106FA01F21042D7D00120FFF713
:1009D000C7FB34E0FFE796FAA6F1B1FA81F108EB24
:1009E0008101C1F88094FFF7B3FC824606E000BFA6
:1009F000FFF7AEFCA0EB0A00022872D897FAA7F026
:100A0000B0FA80F040F06000B6EB501F01D12868CA
:100A10000BE097FAA7F0B0FA80F040F06000B7EB77
:100A2000501F01D1286A00E0686A97FAA7F1B1FA6D
:100A300081F101F01F0106FA01F21042D8D12078AD
:100A4000400765D5E86940F08050E861E869DFF863
:100A5000CCB000F080500090DBF8001041F48071C1
:100A6000CBF80010FFF774FC824605E0FFF770FC3E
:100A7000A0EB0A00642834D8DBF80000C005F5D5E7
:100A8000E06801280AD008B1052813D0286A20F0B0
:100A900001002862286A20F0040002E0286A40F081
:100AA00001002862E06841F2883B90B3FFF750FCF8
:100AB00082460BE0286A40F004002862EEE700BF9F
:100AC000FFF746FCA0EB0A0159450AD897FAA7F0B0
:100AD000B0FA80F040F04000B6EB501F02D1286819
:100AE0000CE0A3E097FAA7F0B0FA80F040F04000E5
:100AF000B7EB501F01D1286A00E0686A97FAA7F1A6
:100B0000B1FA81F101F01F0206FA02F10842D7D0D2
:100B100031E005E000100240000042420070004059
:100B2000FFF716FC824605E0FFF712FCA0EB0A0176
:100B300059457BD897FAA7F0B0FA80F040F0400012
:100B4000B6EB501F01D128680BE097FAA7F0B0FA76
:100B500080F040F04000B7EB501F01D1286A00E060
:100B6000686A97FAA7F1B1FA81F101F01F0206FA5B
:100B700002F10842D8D1E06980B36968C1F381010C
:100B8000022970D04FF080714F000228484609D0EA
:100B900091FAA1F1B1FA81F148F82100FFF7D8FBF1
:100BA000044669E08A4691FAA1F1B1FA81F1C146A1
:100BB00048F82100FFF7CCFB804605E0FFF7C8FBB3
:100BC000A0EB0800022854D897FAA7F0B0FA80F0FA
:100BD00040F02000400902D0286801E061E0686A26
:100BE00097FAA7F1B1FA81F101F01F0106FA01F1BC
:100BF0000842E3D1206AB0F5803F05D16868A1685A
:100C000020F4003008436860D4E9080108436968AB
:100C100021F47411084368609AFAAAF0B0FA80F0DF
:100C200049F82060FFF794FB044606E021E000BF8E
:100C3000FFF78EFB001B02281BD897FAA7F0B0FA2B
:100C400080F040F02000400901D0286800E0686A88
:100C500097FAA7F1B1FA81F101F01F0106FA01F14B
:100C60000842E5D01DE01EE0FFF772FB001B0228E2
:100C700002D90320BDE8F88F97FAA7F0B0FA80F008
:100C800040F02000400901D0286800E0686A97FA27
:100C9000A7F1B1FA81F101F01F0106FA01F1084252
:100CA000E2D10020E6E70120E4E74FF0E02104284C
:100CB000086903D020F004000861704740F0040088
:100CC000FAE7704710B5401EB0F1807F01D30120D4
:100CD00010BD4FF0E02460610F21601700F0D2FBDF
:100CE0000020A06107202061002010BD10B5FFF793
:100CF000E8FF10BD70477047704770B50446006844
:100D000001694FF00005C943890715D4C168C9437B
:100D1000890711D4E91E01610120207620688069CD
:100D20008007204602D0FFF7E7FF04E000F098F8C4
:100D3000204600F096F8257620680169C9434907E6
:100D400017D4C168C943490713D46FF00401016186
:100D5000022020762068806910F4407F204602D06F
:100D6000FFF7CAFF04E000F07BF8204600F079F8B6
:100D7000257620680169C943090716D4C168C943AB
:100D8000090712D46FF00801016104202076206861
:100D9000C0698007204602D0FFF7AEFF04E000F0F4
:100DA0005FF8204600F05DF8257620680169C943A8
:100DB000C90617D4C168C943C90613D46FF010011E
:100DC0000161082020762068C06910F4407F204629
:100DD00002D0FFF791FF04E000F042F8204600F057
:100DE00040F8257620680169C943C90708D1C16860
:100DF000C943C90704D1891E0161204600F032F8B9
:100E000020680169C943090609D4C168C9430906B4
:100E100005D46FF0800101612046FFF76BFF206869
:100E20000169C943490609D4C168C943490605D4C3
:100E30006FF040010161204600F0BCF820680169B4
:100E4000C94389060BD4C168C943890607D46FF02A
:100E5000200101612046BDE87040FFF74CBF70BD26
:100E6000704770472DE9F04700684F4988427DD1AF
:100E70004E4C4F4DA068401CA0606978002641F29E
:100E800088384FF47A77012911D1B84206DA698D92
:100E9000E86AFFF754FAA068B84204DB698DE86A93
:100EA0000022FFF750FAA168414500DBA660687890
:100EB0004FF4FA79022812D1A068484506DA698D04
:100EC000E86AFFF73CFAA068484508DB698DE86AE4
:100ED0000022FFF738FAA068B84200DBA660E0689D
:100EE000334D401C3035E0606978012911D1B8429A
:100EF00006DA698DE86AFFF722FAE068B84204DB97
:100F0000698DE86A0022FFF71EFAE168414500DBBF
:100F1000E6606878022812D1E068484506DA698DF3
:100F2000E86AFFF70CFAE068484508DB698DE86A73
:100F30000022FFF708FAE068B84200DBE6602069AB
:100F40001B4D401C603520616978012913D1B842DE
:100F500006DA698DE86AFFF7F2F92069B84204DB26
:100F6000698DE86A0022FFF7EEF900E019E02169D7
:100F7000414500DB26616878022812D12069484586
:100F800006DA698DE86AFFF7DAF92069484508DB77
:100F9000698DE86A0022FFF7D6F92069B84200DBC4
:100FA0002661BDE8F0870000000400400400002036
:100FB000340000207047704738B504460068016867
:100FC000C26811F0010F02F4807204D01AB1E16B13
:100FD00041F00101E1630168C1F34002416901F0A0
:100FE000010122B119B1E26B42F00402E26302682E
:100FF000C2F3800222B119B1E26B42F00202E26355
:101000000268C2F3C00222B119B1E16B41F00801DC
:10101000E1630168C068C1F3401100F0200019B11C
:1010200010B1204600F0A4FA20680168C068C1F33E
:10103000C01100F0800019B110B1204600F0A4FBEF
:1010400021680868CA68C0F3801002F040020125D8
:1010500070B16AB1CA68204622F04002CA6094F8B2
:101060003910322911D080F8395000BF00F098F9BA
:10107000E06B002808D0206801684068009084F880
:1010800039502046FFF797FF38BD222180F83910EC
:10109000ECE770B5040004D094F83900002510B1D5
:1010A00006E0012070BD84F83850204600F020F89A
:1010B000022084F839002068C16821F40051C16021
:1010C000204600F0A9FA2068016921F490410161ED
:1010D0002068416921F02A0141612068C16841F41A
:1010E0000051C160E563012084F83900002070BD23
:1010F00010B50068194986B088422CD11848C169DA
:1011000041F48021C161C069164C00F48020049034
:101110004FF4806000900220019003200390694604
:101120002046FFF729F80021E014CDE900010291E3
:1011300069462046FFF720F80B48416821F030014E
:1011400041F010014160002211462720FFF77EF98F
:101150002720FFF76FF906B010BD000000480040DF
:1011600000100240001001400000014090F83930AA
:10117000012B01D0122B2CD139B332B390F8383077
:10118000012B26D0012380F8383081628285C28508
:101190000021C16390F83920122A18D05FF0220292
:1011A00080F8392080F838100168CA6842F48072EB
:1011B000CA6001684A6942F001024A610068C16878
:1011C00041F02001C16000207047012070473222A9
:1011D000E6E7022070470000F0B43B4A01680023B4
:1011E0003A48914201D0C16801E03949C16091F8A3
:1011F000385001240022232D01D1C0E9004291F88A
:1012000038503E2D01D181F84C2005684DB345681A
:10121000062D52D2DFE805F003050A1016264460B9
:101220004BE091F83820CA77022209E091F8382083
:1012300081F82020032203E091F838208A770422E5
:1012400042603AE091F838408368CD1885F8214033
:101250008C7F641E9C4202DC82600522F0E75B1CEE
:1012600083602AE0CA8606E0CE8ECD1895F821501C
:101270003544CD865B1C8D7F9D42F5DCCB8E8D7F0A
:101280002B44CB86CB8ECD7F2B44CB86CB8E91F857
:1012900020502B44CB868D7F01F13C03ED5C8E7F8B
:1012A0005B1EF35C45EA0323CD8E9D4201D000BF57
:1012B00003E081F84C404260026051F8380BF0BC0A
:1012C0000122FFF753BF000000480040200000202B
:1012D000040100202DE9F047044690F839009946B2
:1012E0000D46012801D0222858D12DB322B394F8FD
:1012F0003800012852D0012684F838600027E763BF
:1013000094F8390022281AD05FF0120084F83900CE
:10131000A284E2844FF48058E08C4B46401EE08467
:10132000A0684FF0000240454FF08001204613D1E5
:1013300000F05DFA08BB04E00120BDE8F087322030
:10134000E4E728882168C0F308004860206908B1F4
:101350006D1C08E0AD1C06E000F049FA68B9216890
:1013600015F8010B4860E08C0028D5D14B460022CF
:101370004021204600F03BFA08B10320DDE794F855
:101380003900322806D084F8396000BF84F83870FC
:101390000020D2E7222084F83900F7E70220CCE7CA
:1013A0007047FEE7F0B5284885B0816941F020011B
:1013B0008161816901F020010491816941F010018E
:1013C0008161816901F010010491816941F004019A
:1013D0008161816901F004010491816941F0080192
:1013E00081618069194F00F0080004900022FF21FC
:1013F0003846FEF7A8FFFF200124CDE900040225AE
:10140000694603953846FEF7B7FE0122960231463B
:101410003846FEF798FF01AA1120009682E83100B5
:1014200069463846FEF7A8FE094E00220F213046D5
:10143000FEF789FF0F20CDE9000469460395304689
:10144000FEF79AFE05B0F0BD001002400008014012
:101450000010014010B5094901604FF49641416008
:10146000002181600C22C160C0E904128161C16168
:10147000FFF70FFE002800D0FEE710BD0048004037
:10148000FEE770470907090E002806DA00F00F0092
:1014900000F1E02080F8141D704700F1E02080F892
:1014A000001470477047704710B5FEF757FFBDE84E
:1014B0001040FFF71BBC30B58FB00225012004900F
:1014C00000951020059000244FF4C010CDE908408D
:1014D00007956846FFF72AF900B1FEE70F20CDE92E
:1014E0000A054FF48060CDE90C4001210AA80E9452
:1014F000FEF7DEFF00B1FEE7FFF79EF84FF47A71CA
:10150000B0FBF1F0FFF7DEFB0420FFF7CEFB00227B
:101510001146501EFEF79AFF0FB030BD0D4801680E
:1015200041F00101016041680B4A114041600168CE
:101530000A4A11400160016821F48021016041687C
:1015400021F4FE0141604FF41F0181600449C00392
:1015500008607047001002400000FFF8FFFFF6FE31
:1015600008ED00E00148FFF7C8BB00007C01002047
:1015700010B590F83910222903D0322901D0022069
:1015800010BD8168B1F5805F11D001690029016843
:101590001FD0496801F07F03816A4A1C82620B7088
:1015A000C18D491E0904090CC18518D030E00269BB
:1015B000816A002A0268526805D0D2B20A80816A24
:1015C000491C8162ECE7C2F308020A80816A891C27
:1015D000F7E74A68816A4B1C83620A70E0E701689A
:1015E000CA6822F02002CA6090F83910322911D05E
:1015F0000168CA6822F48072CA6001684A6922F0F0
:1016000001024A615FF0010180F83910FFF7E4FD43
:10161000002010BD1221F7E72DE9F04104460068D3
:101620000169E26821F44051114301612169A06818
:101630000843616908432168CA6841F20C639A4310
:101640000243CA6020684169A26921F440711143D4
:1016500041614C4920686425322688423CD1FFF71D
:1016600009F800EBC00101EB001061688900B0FBD4
:10167000F1F7FEF7FFFF00EBC00101EB001061681E
:10168000B0468900B0FBF1F0B0FBF5F06FF0180147
:10169000484307EB800106EB0110B0FBF5F000F0CA
:1016A000F006FEF7E7FF00EBC00101EB00106168F8
:1016B0008900B0FBF1F0B0FBF5F006EB0016FEF789
:1016C000D9FF00EBC00101EB001061688900B0FB9D
:1016D000F1F7FEF7CFFF3BE0FEF7B4FF00EBC001F0
:1016E00001EB001061688900B0FBF1F7FEF7AAFF7B
:1016F00000EBC00101EB00106168B0468900B0FB4F
:10170000F1F0B0FBF5F06FF01801484307EB8001F2
:1017100006EB0110B0FBF5F000F0F006FEF792FFCB
:1017200000EBC00101EB001061688900B0FBF1F033
:10173000B0FBF5F006EB0016FEF784FF00EBC001EE
:1017400001EB001061688900B0FBF1F7FEF77AFF4A
:1017500000EBC00101EB001061688900B0FBF1F003
:10176000B0FBF5F06FF01801484307EB800108EB80
:101770000110B0FBF5F0216800F00F0030448860E4
:10178000BDE8F0810038014090F83910122903D0EB
:10179000322901D0022070478168B1F5805F016A6B
:1017A0000BD04A1C0262026809785160C18C491E44
:1017B0000904090CC1840ED017E009880268C1F33E
:1017C0000801516001690029016A02D0491C0162C7
:1017D000ECE7891CFBE70168CA6822F08002CA6056
:1017E0000068C16841F04001C160002070472DE9E8
:1017F000F0471D4690460E460446FEF7A9FD0746F3
:101800005FEA08004FF000094FF0010808D030E00F
:10181000681C05D095B1FEF79BFDC01BA8420DD8F2
:101820002068006836EA0000F2D127E0681C20D06A
:1018300025B1FEF78DFDC01BA8421AD92068C168EA
:1018400021F08001C1602068C16821F02001C160E1
:101850002068C16821F48071C1602068416921F06D
:101860000101416184F8398084F838900320BDE893
:10187000F0872068006836EA0000D7D00020F6E73D
:101880000148FFF799BB0000C4000020FEE702E01A
:1018900008C8121F08C1002AFAD1704770470020FB
:1018A00001E001C1121F002AFBD1704710B50446A8
:1018B00000886080A189A068FEF73CFD2082E37B60
:1018C00000210122012B01D063B113E060B1A08897
:1018D00064280ED2401CA08080B2642809D248B986
:1018E000218007E00028F2D0A0880028F8D0401E10
:1018F000F1E72280A07B012805D048B103280CD055
:1019000002280ED0FEE720886188884207D80BE0C5
:1019100020886188884202D306E0208820B901200F
:1019200010BD20880128FBD0002010BD08B5FEF7AF
:101930001DFDFFF7C0FDFFF735FD1D48416C34303C
:1019400000910FC8FEF701FC19487038FFF782FDBF
:101950001749703901F140000160012180F84C10F5
:1019600064300021C1734FF400528281114A8260B9
:1019700081734FF4FA60FEF7F3FB0D48303800F046
:101980001DF865250C4C0D2609483430FFF78EFFF5
:101990000128F9D125706570A570E570044825719E
:1019A00066710123062204497038FFF793FCEBE7C8
:1019B00034010020001001401800002010B504463A
:1019C000012291020548FEF7BEFC206804F13801AF
:1019D000BDE810400122FFF7C9BB0000000801402C
:1019E00000000000000000000102030406070809CF
:1019F0000000000001020304181A00080000002083
:101A0000340000008E1800084C1A00083400002032
:101A1000840500009E18000800000000C3F58C41FA
:101A2000B81E73430000000000000000000000002A
:101A300000000000000000000000000000000000A6
:0C1A4000000000000000000000A24A04AA
:04000005080000ED02
:00000001FF
